:020000040000FA
:040000009EEF05F07A
:100800000020202053454E414920203131382020FE
:1008100020002050574D204175746F6D61746963DD
:100820006F200000000E0E6E000E0D6E000E0C6E9E
:10083000030E936EF18E3BEC05F0C0EC05F0FF0E5D
:10084000B3EC05F0010E046E010ED3EC04F0010EC2
:10085000046E080E056E83EC05F0010E046E020EA8
:10086000D3EC04F0120E046E080E056E83EC05F056
:100870000C50D8A43EEF04F040EF04F048EF04F031
:10088000010E0D240D6E000E0E200E6E4EEF04F0C4
:10089000FF0E0D240D6EFF0E0E200E6E0EBE58EFD5
:1008A00004F0040E0E5CD8A058EF04F05AEF04F0E8
:1008B00067EF04F00C50D8A460EF04F062EF04F08E
:1008C00067EF04F0030E0E6E0D68010E0C6E0EBE87
:1008D0006EEF04F06CEF04F07CEF04F00C04D8A48D
:1008E00074EF04F076EF04F07CEF04F0000E0E6E6F
:1008F000000E0D6E000E0C6E0DC001F00EC002F069
:1009000065EC05F0C80E00D0E82EFDD738EF04F0F6
:1009100000EF00F0036E000E026E0250D8B493EFA9
:1009200004F095EF04F0A0EF04F003C001F0013AE9
:10093000F00E011681500F0B0110816EA4EF04F030
:1009400081500F0B0310816E81948186100EE82E6A
:10095000FED700D08196022A010E0264B2EF04F0A5
:10096000B4EF04F08DEF04F00304D8B4BAEF04F050
:10097000BCEF04F0C5EF04F0020E0318D8A4C3EFD7
:1009800004F0C5EF04F0CEEF04F0030E016E980EF4
:10099000E82EFED7012EFCD7D2EF04F0100EE82E81
:1009A000FED700D01200076E0406EBEF04F00450EF
:1009B000800F086E08EF05F00450C00F086E08EFB6
:1009C00005F00450940F086E08EF05F00450D40FA2
:1009D000086E08EF05F00750056E066A0650000A1B
:1009E000D8B4F5EF04F008EF05F00550010AD8B4CB
:1009F000D7EF04F0030AD8B4DCEF04F0010AD8B44E
:100A0000E1EF04F0070AD8B4E6EF04F008EF05F0D0
:100A100008508AEC04F01200026E000E036E0350C0
:100A2000D8B415EF05F017EF05F022EF05F002C07E
:100A300001F0013AF00E011681500F0B0110816E8A
:100A400026EF05F081500F0B0210816E81848186A4
:100A5000100EE82EFED700D08196032A010E036403
:100A600034EF05F036EF05F00FEF05F0100EE82E2D
:100A7000FED700D0120020EE0FF010EE05F0050EAC
:100A8000DBCFE3FFE806FCE281500F0B816E81941F
:100A90008196140E046E7A0EE82EFED7042EFCD733
:100AA000000E0B6E050E0B24D96EDA6A000EDA22E8
:100AB000DF508AEC04F00B2A050E0B6462EF05F0A0
:100AC00064EF05F052EF05F0120001B002D0BA98C1
:100AD00001D0BA88D8900230046E0130036E033A18
:100AE0000346BA500318DF0B0318BA6E01C003F0B7
:100AF00002C004F0D89004320332D890043203329A
:100B00000350BB6E12008FEF05F004C0F6FF05C066
:100B1000F7FF0800F5500CEC05F0044A052A04C064
:100B2000F6FF05C0F7FF0800F5500009D8A49BEFB9
:100B300005F09DEF05F085EF05F01200880EF66ECA
:100B40000B0EF76E000EF86E00EE0FF010EE06F0D2
:100B50000900F5CFEEFFE550E150FAE1000EF86E26
:100B6000000112EF04F0016E01C0CBFF9492000E61
:100B7000CA6ECA84CB68BD8EBD9C0C0EBA6E1200C4
:0E0B8000010E8AEC04F012003332280C06013C
:020000040020DA
:08000000FFFFFFFFFFFFFFFF00
:020000040030CA
:0E000000000C0000FF8181FF0FC00FE00F40D9
:00000001FF
