:020000040000FA
:04000000B4EF0BF05E
:100800000020202053454E414920203131382020FE
:100810002000496E74656E7369646164652000250B
:1008200000001250800B1B6E12501224216E11AE6C
:100830001CEF04F01EEF04F01FEF04F021802150A4
:10084000D8B425EF04F027EF04F03AEF04F02128A4
:10085000D8A42DEF04F02FEF04F037EF04F0000ED2
:100860000F6E000E106E000E116E000E126E118EC5
:1008700042EF04F0000E0F6E000E106E000E116EAF
:10088000000E126E1650800B1B1A16501624206E86
:1008900015AE4DEF04F04FEF04F050EF04F0208060
:1008A0002050D8B456EF04F058EF04F06BEF04F08A
:1008B0002028D8A45EEF04F060EF04F068EF04F0A5
:1008C000000E136E000E146E000E156E000E166EE6
:1008D000158E73EF04F0000E136E000E146E000EF2
:1008E000156E000E166E2050D8B479EF04F07BEF31
:1008F00004F083EF04F02150D8A481EF04F083EFDB
:1009000004F08DEF04F0000E0F6E000E106E000E5E
:10091000116E000E126E25EF06F015500F02F3CF88
:1009200026F0F4CF27F026501C6E1D6A1E6A1F6A3F
:100930002750226E236A246A256A14501002F3CFCE
:1009400026F0F4CF27F026501C26000E1D221E2272
:100950001F2227502226000E232224222522135054
:100960001102F3CF26F0F4CF27F026501C26000EFC
:100970001D221E221F2227502226000E232224225F
:1009800025221EC01FF01DC01EF01CC01DF01C6AD9
:1009900013501002F3CF26F0F4CF27F026501C2678
:1009A00027501D22000E1E22000E1F2214500F027F
:1009B000F3CF26F0F4CF27F026501C2627501D2217
:1009C000000E1E22000E1F221EC01FF01DC01EF0B2
:1009D0001CC01DF01C6A13500F02F3CF26F0F4CF99
:1009E00027F026501C2627501D22000E1E22000E26
:1009F0001F2215501002F3CF26F0F4CF27F0265017
:100A0000222627502322000E2422000E25221450D5
:100A10001102F3CF26F0F4CF27F0265022262750DC
:100A20002322000E2422000E252215501102F3CF9E
:100A300026F0F4CF27F02650176E2750186E196A4B
:100A40001A6A19C01AF018C019F017C018F0176AFE
:100A50001750222618502322195024221A502522DA
:100A60001CC017F01DC018F01EC019F01FC01AF0EE
:100A7000190E40EF05F0D8901A3219321832173299
:100A8000E82E3BEF05F0175022261850232219506C
:100A900024221A5025221EC01FF01DC01EF01CC0AB
:100AA0001DF01C6A205021C017F0186A1726000E8E
:100AB0001822820E1724266EFF0E1820276E76EF5E
:100AC00005F0D89022362336243625361FAE6BEF3C
:100AD00005F06DEF05F06EEF05F02280D8901C3622
:100AE0001D361E361F362606D8A0270624AE7BEFFD
:100AF00005F07DEF05F061EF05F0000E206E1FAEF2
:100B000084EF05F086EF05F0AAEF05F0FF0E1C1448
:100B1000176EFF0E1D14186EFF0E1E14196E7F0E39
:100B20001F141A6E1750181019101A10D8B49BEF12
:100B300005F09DEF05F0A1EF05F0010E206EAAEF84
:100B400005F022A0A6EF05F0A8EF05F0AAEF05F04A
:100B50009DEF05F02050D8B4B0EF05F0B2EF05F0EE
:100B6000D6EF05F0010E2226000E23222422252294
:100B700025A0BDEF05F0BFEF05F0D6EF05F022C0D0
:100B800017F023C018F024C019F025C01AF01A3449
:100B90001A3219321832173217C022F018C023F057
:100BA00019C024F01AC025F0264A272A27BEE1EFF3
:100BB00005F0275008E12628D8A0E1EF05F0E3EF83
:100BC00005F0EDEF05F0000E226E000E236E800E94
:100BD000246E7F0E256E1BEF06F027BEFAEF05F0A0
:100BE000275006E12604D8B0F8EF05F0FAEF05F03B
:100BF00006EF06F0000E226E000E236E000E246E2D
:100C0000000E256E000E1B6E1BEF06F026C021F0B5
:100C1000FF0E2216FF0E23167F0E2416000E251639
:100C200021A015EF06F017EF06F018EF06F0248E5E
:100C3000D8902130256E1B50251222C00FF023C002
:100C400010F024C011F025C012F012002B50800BC0
:100C5000386E2B502B243F6E2AAE31EF06F033EF67
:100C600006F034EF06F03F803F50D8B43AEF06F07C
:100C70003CEF06F051EF06F03F28D8A442EF06F013
:100C800044EF06F04CEF06F0000E286E000E296EC1
:100C9000000E2A6E000E2B6E2A8E000E2B6E59EF60
:100CA00006F0000E286E000E296E000E2A6E000E51
:100CB0002B6E2F50800B381A2F502F24406E2EAEE3
:100CC00064EF06F066EF06F067EF06F040804050F4
:100CD000D8B46DEF06F06FEF06F084EF06F0402811
:100CE000D8A475EF06F077EF06F07FEF06F0000E60
:100CF0002C6E000E2D6E000E2E6E000E2F6E2E8EA0
:100D0000000E2F6E8CEF06F0000E2C6E000E2D6E76
:100D1000000E2E6E000E2F6E2C502D102E102F1048
:100D2000D8A495EF06F097EF06F0AFEF06F0000EAF
:100D3000286E000E296E000E2A6E000E2B6E800E9D
:100D40002A127F0E2B1238502B1228C028F029C0EF
:100D500029F02AC02AF02BC02BF0F2EF07F03F5009
:100D6000D8A4B5EF06F0B7EF06F0C1EF06F0000E1D
:100D7000286E000E296E000E2A6E000E2B6EF2EF0A
:100D800007F040503FC030F0316A305E000E315AFB
:100D90007F0E3024396E000E31203A6E28C034F0B8
:100DA00029C035F02AC036F02BC037F0000E286E6F
:100DB000000E296E000E2A6E000E2B6E000E3B6E8A
:100DC000000E3C6E000E3D6E000E3E6E000E406E3C
:100DD00022EF07F04050D8B4F0EF06F0F2EF06F043
:100DE00009EF07F0D8903436353636363736D89096
:100DF000283629362A362B363EAE01EF07F003EFB0
:100E000007F004EF07F02880D8903B363C363D369B
:100E10003E362C50345C2D5035582E5036582F50BD
:100E20003758D8A016EF07F018EF07F021EF07F0BA
:100E30003E8C2C50345E2D50355A2E50365A2F5041
:100E4000375A402A190E406428EF07F02AEF07F0BE
:100E5000EAEF06F03450351036103710D8B433EFBF
:100E600007F035EF07F04DEF07F03B804DEF07F04F
:100E7000D890283629362A362B363EAE42EF07F078
:100E800044EF07F045EF07F02880D8903B363C361A
:100E90003D363E363906D8A03A062AAE52EF07F064
:100EA00054EF07F038EF07F0000E406E3EAE5BEFF8
:100EB00007F05DEF07F081EF07F0FF0E3B14306E97
:100EC000FF0E3C14316EFF0E3D14326E7F0E3E1449
:100ED000336E3050311032103310D8B472EF07F047
:100EE00074EF07F078EF07F0010E406E81EF07F026
:100EF00028A07DEF07F07FEF07F081EF07F074EF98
:100F000007F04050D8B487EF07F089EF07F0ADEF56
:100F100007F0010E2826000E29222A222B222BA0C0
:100F200094EF07F096EF07F0ADEF07F028C030F030
:100F300029C031F02AC032F02BC033F033343332C1
:100F400032323132303230C028F031C029F032C074
:100F50002AF033C02BF0394A3A2A3ABEB8EF07F0EC
:100F60003A5008E13928D8A0B8EF07F0BAEF07F0F7
:100F7000C5EF07F0000E3A6E3968000E286E000EBD
:100F8000296E000E2A6E000E2B6E3ABED2EF07F0CD
:100F90003A5006E13904D8B0D0EF07F0D2EF07F0AD
:100FA000E0EF07F0000E3A6E000E396E000E286E6C
:100FB000000E296E000E2A6E000E2B6E000E386E8B
:100FC00039C03FF03FA0E7EF07F0E9EF07F0ECEFA3
:100FD00007F02A8EEDEF07F02A9ED8903F302B6E57
:100FE000A3EF06F01200096E0950D8B4FAEF07F02B
:100FF000FCEF07F01EEF08F004BE03EF08F001EF6E
:1010000008F01EEF08F001C005F002C006F003C0B2
:1010100007F004C008F0051E061E071E081E052A5C
:10102000000E06220722082205C00BF006C00CF0B5
:1010300007C00DF008C00EF026EF08F001C00BF05D
:1010400002C00CF003C00DF004C00EF001500210FD
:1010500003100410D8A42FEF08F031EF08F03BEF95
:1010600008F0000E016E000E026E000E036E000E00
:10107000046ECCEF08F0960E0A6E45EF08F00A2ACF
:10108000D8900E320D320C320B32000E0B14056E5E
:10109000000E0C14066E000E0D14076EFE0E0E14DC
:1010A000086E0550061007100810D8A45AEF08F073
:1010B0005CEF08F03FEF08F06AEF08F00A2A010E33
:1010C0000B26000E0C220D220E22D8900E320D326D
:1010D0000C320B32000E0B14056E000E0C14066E53
:1010E000000E0D14076EFF0E0E14086E055006104C
:1010F00007100810D8A47FEF08F081EF08F05EEF2A
:1011000008F089EF08F00A06D8900B360C360D3639
:101110000E360DBE8EEF08F090EF08F098EF08F055
:10112000020E0A6096EF08F098EF08F083EF08F0DF
:101130000AB09DEF08F09FEF08F0A0EF08F00D9EB9
:10114000D8900A320AC005F0066A076A086A05C024
:1011500008F0076A066A056A05500B1206500C1261
:1011600007500D1208500E120950D8B4BAEF08F00B
:10117000BCEF08F0C4EF08F004BEC3EF08F0C1EF05
:1011800008F0C4EF08F00E8E0BC001F00CC002F0A6
:101190000DC003F00EC004F01200030E936EF18E2A
:1011A0003BEC0BF0DFEC0BF0D6EC0BF0FF0EC9ECD8
:1011B0000BF0010E046E010EA1EC0AF0010E046E9C
:1011C000080E056E83EC0BF09EEC0BF001C04FF0A7
:1011D00002C050F04FC001F050C002F065EC0BF0BF
:1011E000010E046E020EA1EC0AF0120E046E080E3F
:1011F000056E83EC0BF0100E046E020EA1EC0AF0EB
:101200001F0E046E080E056E83EC0BF00D0E046EBF
:10121000020EA1EC0AF0000E2C6E000E2D6E800E58
:101220002E6E440E2F6E000E136E000E146EA00E66
:10123000156E400E166E4FC001F050C002F0000E49
:1012400002BEFF0E036E046E010EF3EC07F001C048
:101250000FF002C010F003C011F004C012F011EC46
:1012600004F00FC028F010C029F011C02AF012C0FD
:101270002BF026EC06F028C04BF029C04CF02AC019
:101280004DF02BC04EF0000E136E000E146EA00E2B
:10129000156E410E166E4BC00FF04CC010F04DC0D5
:1012A00011F04EC012F011EC04F00FC041F010C06C
:1012B00042F011C043F012C044F09BEC09F041C071
:1012C00051F042C052F051C001F052C002F0000E85
:1012D000046E640E036E67EC0AF00150300F0CECE4
:1012E0000BF0000E046E0A0E036E51C001F052C0E6
:1012F00002F067EC0AF001C008F002C009F0000E2D
:101300000B6E0A0E0A6EDAEC0AF00850300F0CEC85
:101310000BF051C008F052C009F0000E0B6E0A0E1F
:101320000A6EDAEC0AF00850300F0CEC0BF0E4EF28
:1013300008F000EF00F0433444344A6E4A50D8A419
:10134000A4EF09F0A6EF09F0B0EF09F0000E416E2E
:10135000000E426E000E436E000E446E1DEF0AF04A
:1013600041C045F042C046F043C047F044C048F099
:10137000200EC0EF09F0D89048324732463245324D
:10138000E82EBBEF09F04550496E438EFF0E411623
:10139000FF0E4216FF0E4316000E4416960E4A5ECE
:1013A0004ABED7EF09F0D5EF09F0EDEF09F04A504A
:1013B000800A970FD8B0DFEF09F0E1EF09F0E3EF13
:1013C00009F0A6EF09F0D89044324332423241325C
:1013D0004A3EE3EF09F005EF0AF01F0E4A64F3EF0F
:1013E00009F0F5EF09F0FDEF09F0A6EF09F0D8904C
:1013F00041364236433644364A064A50D8A403EFB3
:101400000AF005EF0AF0F7EF09F04950D8B40BEFF6
:101410000AF00DEF0AF015EF0AF0441E431E421EBB
:10142000416C000E42224322442241C041F042C09E
:1014300042F043C043F044C044F01200036E000E7B
:10144000026E0250D8B427EF0AF029EF0AF034EF09
:101450000AF003C001F0013AF00E011681500F0BA3
:101460000110816E38EF0AF081500F0B0310816E6E
:1014700081948186100EE82EFED700D08196022A34
:10148000010E026446EF0AF048EF0AF021EF0AF07D
:101490000304D8B44EEF0AF050EF0AF059EF0AF007
:1014A000020E0318D8A457EF0AF059EF0AF062EFC2
:1014B0000AF0030E016E980EE82EFED7012EFCD71F
:1014C00066EF0AF0100EE82EFED700D01200000ED4
:1014D000066E000E056E03500410D8B472EF0AF0C9
:1014E00074EF0AF09CEF0AF0010E076E7CEF0AF031
:1014F000D89003360436072A04AE81EF0AF083EF52
:101500000AF078EF0AF0D890053606360350015CF1
:1015100004500258D8A08FEF0AF091EF0AF096EF2E
:101520000AF00350015E0450025A0580D89004323C
:101530000332072E83EF0AF005C001F006C002F067
:101540001200076E0406B9EF0AF00450800F086E0F
:10155000D6EF0AF00450C00F086ED6EF0AF0045020
:10156000940F086ED6EF0AF00450D40F086ED6EF31
:101570000AF00750056E066A0650000AD8B4C3EF99
:101580000AF0D6EF0AF00550010AD8B4A5EF0AF028
:10159000030AD8B4AAEF0AF0010AD8B4AFEF0AF0F0
:1015A000070AD8B4B4EF0AF0D6EF0AF008501EECE0
:1015B0000AF012000A500B10D8B4E1EF0AF0E3EF82
:1015C0000AF007EF0BF0010E0C6EEBEF0AF0D8906B
:1015D0000A360B360C2A0BAEF0EF0AF0F2EF0AF0E7
:1015E000E7EF0AF00A50085C0B500958D8A0FBEF4F
:1015F0000AF0FDEF0AF001EF0BF00A50085E0B5005
:10160000095AD8900B320A320C2EF2EF0AF008C0B9
:1016100008F009C009F01200026E000E036E0350BC
:10162000D8B415EF0BF017EF0BF022EF0BF002C060
:1016300001F0013AF00E011681500F0B0110816E7E
:1016400026EF0BF081500F0B0210816E8184818692
:10165000100EE82EFED700D08196032A010E0364F7
:1016600034EF0BF036EF0BF00FEF0BF0100EE82E0F
:10167000FED700D0120020EE53F010EE05F0050E5C
:10168000DBCFE3FFE806FCE281500F0B816E819413
:101690008196140E046E7A0EE82EFED7042EFCD727
:1016A000000E0B6E050E0B24D96EDA6A000EDA22DC
:1016B000DF501EEC0AF00B2A050E0B6462EF0BF0F4
:1016C00064EF0BF052EF0BF0120001B002D0BA98A9
:1016D00001D0BA88D8900230046E0130036E033A0C
:1016E0000346BA500318DF0B0318BA6E01C003F0AB
:1016F00002C004F0D89004320332D890043203328E
:101700000350BB6E12008FEF0BF004C0F6FF05C054
:10171000F7FF0800F5500CEC0BF0044A052A04C052
:10172000F6FF05C0F7FF0800F5500009D8A49BEFAD
:101730000BF09DEF0BF085EF0BF01200C282C2B2EE
:10174000A4EF0BF0A6EF0BF09FEF0BF0C4CF05F06A
:10175000066A0550036EC350056E03C006F005C04F
:1017600001F006C002F01200C60EF66E170EF76EFC
:10177000000EF86E00EE53F010EE06F00900F5CF03
:10178000EEFFE550E150FAE1000EF86E0001CDEFFA
:1017900008F0016E01C0CBFF9492000ECA6ECA849D
:1017A000CB68BD8EBD9C0C0EBA6E12009280000EEE
:1017B000C26E0E0EC16ED90EC06EC2801200010E36
:0C17C0001EEC0AF012003332280C060167
:020000040020DA
:08000000FFFFFFFFFFFFFFFF00
:020000040030CA
:0E000000000C0000FF8181FF0FC00FE00F40D9
:00000001FF
